:100000000C94D6010C941A020C941A020C941A0245
:100010000C941A020C941A020C941A020C941A02F0
:100020000C941A020C941A020C94FF060C94CF073D
:100030000C9483170C941A020C941A020C941A0252
:100040000C941A020C941A020C941A020C941A02C0
:100050000C941A020C94EA170C941A020C941A02CB
:100060000C941A020C941A020C941A020C941A02A0
:100070000C941A020C941A020C941A020C941A0290
:100080000C941A020C941A020C941A020C941A0280
:100090000C941A020C941A020C941A020C941A0270
:1000A0000C941A020C941A020C941A02370959097A
:1000B000450A5909450A9B09BF09450A140A270A36
:1000C0000F0D0F0D3D0D3D0D920DCE0DBF0FBF0F4E
:1000D000E60DBF0FDD0EDD0E990FBF0FBF0FAD0F89
:1000E000F71C0F1DDC1CDA1CDA1C7E1DDA1CDA1C66
:1000F000261DDA1C301D421DDA1CDA1CDA1CDA1C43
:100100007E1D7E1DDA1C7E1DDA1C1C1DDA1CDA1C0D
:100110006B1D6B1D6B1D6B1D6B1D6B1D6B1D6B1D9F
:100120006B1D661DDA1C661DDA1CDA1CDA1CDA1C73
:10013000DA1CDA1CDA1CDA1CDA1CDA1CDA1C661D82
:10014000DA1CDA1C7E1DE11C6D1D6D1D6D1D6D1D03
:100150006D1D6D1D6D1D6D1D6D1D6D1D6D1D6D1D4F
:100160004B1DDA1C011DF1A135343637131C090A69
:1001700006150F2AE0041208180C070B1711162D8C
:10018000E133140D0E1B05101A1952C0C0E2E3280A
:100190000000002CE750514F351E1F202122232440
:1001A000252627310100000000000000002F303814
:1001B00001000000000000002D2E1D0101010101C1
:1001C00000000001010101010A034D00410034005B
:1001D0003200000018034D0041004B00650079001B
:1001E00062006F006100720064007300000004038D
:1001F000090409028D00050100A032090400000174
:1002000003010100092111010001223F00070581BE
:100210000308000A09040100010301020009211179
:10022000010001224D000705820308000A090402AB
:10023000000103000000092111010001223600071E
:1002400005830308000A09040300020300000009F3
:10025000211101000122200007058403200001076D
:100260000504032000010904040001030000000943
:100270002111010001223900070585031000011238
:1002800001100100000008EDFE42420200010200E0
:100290000105010906A101050719E029E715002557
:1002A0000195087501810205081901290595057553
:1002B0000191029501750391010507190029771530
:1002C000002501957875018102C00631FF0974A1EE
:1002D000010975150025FF9520750881020976151D
:1002E0000025FF952075089102C005010980A10134
:1002F000850216010026B7001A01002AB700751002
:1003000095018100C0050C0901A1018503160100BA
:10031000269C021A01002A9C02751095018100C0DA
:1003200005010902A1010901A10005091901290519
:10033000150025019505750181029501750381015F
:100340000501093009311581257F9502750881065F
:1003500009381581257F950175088106050C0A3835
:10036000021581257F950175088106C0C005010928
:1003700006A101050719E029E71500250195087573
:10038000018102950175088101050819012905956A
:100390000575019102950175039101050719002961
:1003A000FF150025FF950675088100C011241FBEAA
:1003B000CFEFDAE0DEBFCDBF04B603FE24C08091EC
:1003C000DD019091DE01A091DF01B091E001873065
:1003D000904BA740B04BB9F41092DD011092DE01B2
:1003E0001092DF011092E00114BE84B7877F84BFB2
:1003F00088E10FB6F89480936000109260000FBE01
:10040000E0E0F8E3099511E0A0E0B1E0EEE2FFE3FF
:1004100002C005900D92A833B107D9F711E0A8E307
:10042000B1E001C01D92AD3DB107E1F70E94580552
:100430000C94951F0C940000089508959CE0799FFA
:10044000F001112490E3899FE00DF11D1124E60FC6
:10045000F11DE859FE4F84910895E82FF0E0EE0F6A
:10046000FF1FEA51F0408591949108958AB1807DF3
:100470008AB98BB1807D8BB908950E94360280B312
:100480008C7F80BB81B3836081BB6E98769A8AB182
:100490008F768AB98BB180698BB987B18F7387B931
:1004A00088B1806C88B984B18C7084B985B1836F50
:1004B00085B91092410110924001109239011092B9
:1004C0003801109243011092420110923B011092A8
:1004D0003A01109245011092440110923D01109290
:1004E0003C01109247011092460110923F01109278
:1004F0003E010895FF920F931F93CF93DF93C8E3BC
:10050000D1E010E001E0A5E0FA2E123051F01330F6
:1005100059F0113019F0509A589808C0519A5998CA
:1005200005C0529A5A9802C0539A5B9880EA8A95FD
:10053000F1F72FB12170202730E0799B03C080E0D4
:1005400090E002C082E090E0282B392B669B03C02C
:1005500080E090E002C084E090E0282B392B86B147
:10056000992787FD9095809590958827990F881FEA
:100570009927F3E0880F991FFA95E1F7282B392B7B
:10058000369B03C040E050E002C040E150E0242B25
:10059000352B1E9B03C040E050E002C040E250E01B
:1005A000242B352B4C9B03C080E090E002C080E4FC
:1005B00090E0282B392B199B03C080E090E002C00B
:1005C00080E890E0282B392B83B1992787FD9095FF
:1005D000809590958827990F881F9927982F8827AD
:1005E000282B392B1D9B03C080E090E002C080E0E7
:1005F00092E0282B392B1C9B03C080E090E002C0C6
:1006000080E094E0282B392B89B1992787FD9095BC
:10061000809590958827990F881F9927982F88276C
:10062000990F990F990F282B392B8881998182175F
:10063000930721F039832883F09200010E9436024B
:100640001F5F2296143009F060CF8091000188234B
:1006500061F1815080930001882339F08FE99FE098
:100660000197F1F700C0000020C0809138019091FF
:100670003901909341018093400180913A0190911A
:100680003B01909343018093420180913C01909102
:100690003D01909345018093440180913E019091EA
:1006A0003F01909347018093460181E0DF91CF9114
:1006B0001F910F91FF900895E82FF0E0EE0FFF1FBC
:1006C000E05CFE4F808191810895089508958091A6
:1006D00058010895CF93DF9300D01F92CDB7DEB7B6
:1006E0002091D401243019F523E029839B838A8348
:1006F0002093E9008FEF9091E800815095FD06C0AE
:1007000095ED9A95F1F700008111F5CF8091E80001
:1007100085FF0DC040E050E063E070E0CE0101963F
:100720000E940B088091E8008E778093E8000F907C
:100730000F900F90DF91CF910895CF93DF9300D06A
:100740001F92CDB7DEB72091D401243021F522E0ED
:1007500029839B838A8383E08093E9008FEF9091C4
:10076000E800815095FD06C095ED9A95F1F70000DF
:100770008111F5CF8091E80085FF0DC040E050E089
:1007800063E070E0CE0101960E940B088091E800C2
:100790008E778093E8000F900F900F90DF91CF91AC
:1007A00008952091D4012430F1F422E02093E9004F
:1007B0002FEF3091E800215035FD06C035ED3A9518
:1007C000F1F700002111F5CF2091E80025FF0BC0C3
:1007D00040E050E065E070E00E940B088091E80086
:1007E0008E778093E8000895CF93DF93EC0180919A
:1007F000D401843009F043C080910C018823C1F0FA
:1008000085E08093E9008FEF9091E800815095FD9D
:1008100006C095E19A95F1F700008111F5CF80911E
:10082000E80085FF2CC040E050E060E170E017C0B8
:1008300081E08093E9008FEF9091E800815095FD71
:1008400006C095ED9A95F1F700008111F5CF8091E2
:10085000E80085FF14C040E050E068E070E0CE01A1
:100860000E940B088091E8008E778093E80080E179
:10087000FE01A8E4B1E001900D928A95E1F7DF91C5
:10088000CF9108958091D301811109C00E948906FA
:100890000E94E6068091E20084608093E200089561
:1008A0001092D301089508950C941D020C948117A1
:1008B0008091D401843049F58091E9008F70909146
:1008C000EC0090FF02C090E801C090E0982B84E01B
:1008D0008093E9008091EB0080FF14C08091EE00CE
:1008E00087FF10C08091E80085FF03C01092F100DF
:1008F000F9CF8091E80080FF05C08091E8008E77F5
:100900008093E8009F709093E900089542E061ECC5
:1009100081E00E94030642E061EC82E00E9403064F
:1009200042E061EC83E00E94030646E261EC84E071
:100930000E94030642E161EC85E00C94030680917D
:10094000D601833009F455C030F4813071F0823023
:1009500009F495C008958A3009F481C08B3009F4F8
:1009600060C0893009F0A3C020C08091D501813AD0
:1009700009F09DC08091E800877F8093E800809116
:10098000D9019091DA01892B21F060E080E090E0BC
:1009900003C060E188E491E070E00E945408809117
:1009A000E8008B778093E80008958091D50181322B
:1009B00009F07DC08091D9019091DA01009719F07A
:1009C000049709F074C08091E800877F8093E80065
:1009D0008091E80082FD05C08091D4018111F8CF9B
:1009E00066C08091F100809358018091E8008B7778
:1009F0005AC08091D501813A09F059C08091D9013E
:100A00009091DA01892B09F052C08091E800877F2C
:100A10008093E8008091E80080FFFCCF80910B017B
:100A20003DC08091D501813209F041C08091D9014A
:100A30009091DA01892BD9F58091E800877F809326
:100A4000E8000E9438069091D70181E0911101C021
:100A500080E080930B0180930C010C94E00F809157
:100A6000D501813221F58091E800877F8093E800ED
:100A70000E9438068091D801809359010895809191
:100A8000D501813AA1F48091E800877F8093E80046
:100A90008091E80080FFFCCF809159018093F100A4
:100AA0008091E8008E778093E8000C9438060895D2
:100AB00084B7877F84BF88E10FB6F8948093600085
:100AC000109260000FBE90E080E80FB6F89480931B
:100AD0006100909361000FBE0E9489060E94E606A5
:100AE0008091E20084608093E20078948091D40148
:100AF0008430E1F70E94B60A81E091E00E945E0A2C
:100B00008091D401853069F40E9446178091D2010A
:100B10008823B1F30E946C17882391F30E94ED059E
:100B2000EFCF0E94BC0AECCF292F332723303105A9
:100B3000A9F06CF42130310509F442C022303105AE
:100B400009F043C08DE890E022EF31E042C021324D
:100B50003105C9F02232310519F137C099278130AA
:100B6000910541F08230910541F0892B71F5EEEE4F
:100B7000F1E005C0E4EDF1E002C0E8ECF1E08491C1
:100B800090E09F0126C0653000F5E62FF0E0EE0F03
:100B9000FF1FEC5DFE4F2081318189E090E019C09C
:100BA000653098F4E62FF0E0DF01AA0FBB1FA65EC8
:100BB000BE4F2D913C91EB5EFE4F808190E009C0CD
:100BC00082E190E02FE732E004C080E090E020E096
:100BD00030E0FA0131832083089580E189BD82E10C
:100BE00089BD09B400FEFDCF8091D8008F7D809330
:100BF000D8008091E00082608093E0008091E00066
:100C000081FDFCCF0895982F973058F59093E90017
:100C1000981739F07091EC002091ED005091F000A0
:100C200003C0242F762F50E021FF19C03091EB0034
:100C30003E7F3093EB003091ED003D7F3093ED002F
:100C40003091EB0031603093EB007093EC00209317
:100C5000ED005093F0002091EE0027FF07C09F5F4A
:100C6000D3CF8F708093E90081E0089580E00895EC
:100C70008091D50187FD05C08091E80080FF0EC0FE
:100C800012C08091E80082FD05C08091D4018111DD
:100C9000F8CF08958091E8008B7708C08091D40147
:100CA0008111EACF08958091E8008E778093E80063
:100CB00008958091E4009091E50045E62091EC00D4
:100CC00020FF21C02091E80020FD21C02091D40107
:100CD000222389F0253089F02091EB0025FD0FC0FB
:100CE0002091E4003091E5002817390739F341508D
:100CF00041F0C901E3CF82E0089583E0089581E0E7
:100D0000089584E008952091E80022FFDFCF80E07D
:100D100008950E94F2060E94FA06E0EEF0E080815B
:100D200081608083E8EDF0E080818F77808319BC5B
:100D3000A7EDB0E08C918E7F8C9380818F7E808335
:100D40001092D30108950F931F93CF93DF930E94C6
:100D5000F2060E94FA06C8EDD0E088818F7788837A
:100D600088818068888388818F7D888319BC1092F0
:100D7000D4011092D0011092D2011092D10100EE54
:100D800010E0F80180818B7F808388818160888377
:100D900042E060E080E00E940306E1EEF0E0808146
:100DA0008E7F8083E2EEF0E08081816080838081AD
:100DB00088608083F80180818E7F80838881806154
:100DC0008883DF91CF911F910F910895E7EDF0E0B7
:100DD00080818160808384E082BF81E08093D30141
:100DE0000C94A306E8EDF0E080818E7F8083109262
:100DF000E20008951092DA001092E10008951F9227
:100E00000F920FB60F9211242F933F934F935F933E
:100E10006F937F938F939F93AF93BF93EF93FF93C2
:100E20008091E10082FF0BC08091E20082FF07C049
:100E30008091E1008B7F8093E1000E9458048091B3
:100E4000DA0080FF1FC08091D80080FF1BC0809116
:100E5000DA008E7F8093DA008091D90080FF0DC088
:100E600080E189BD82E189BD09B400FEFDCF81E04A
:100E70008093D4010E94420405C019BC1092D40191
:100E80000E9450048091E10080FF19C08091E2002F
:100E900080FF15C08091E2008E7F8093E2008091F8
:100EA000E20080618093E2008091D80080628093AC
:100EB000D80019BC85E08093D4010E94540480912D
:100EC000E10084FF2EC08091E20084FF2AC080E10F
:100ED00089BD82E189BD09B400FEFDCF8091D800B3
:100EE0008F7D8093D8008091E1008F7E8093E10018
:100EF0008091E2008F7E8093E2008091E200816029
:100F00008093E2008091D001811104C08091E300C0
:100F100087FF02C084E001C081E08093D4010E9479
:100F200056048091E10083FF29C08091E20083FF95
:100F300025C08091E100877F8093E10082E080936B
:100F4000D4011092D0018091E1008E7F8093E10066
:100F50008091E2008E7F8093E2008091E2008061C8
:100F60008093E20042E060E080E00E94030680910E
:100F7000F00088608093F0000E945304FF91EF918D
:100F8000BF91AF919F918F917F916F915F914F91A1
:100F90003F912F910F900FBE0F901F9018951F92A9
:100FA0000F920FB60F9211242F933F934F935F939D
:100FB0006F937F938F939F93AF93BF93CF93EF9351
:100FC000FF93C091E900CF708091EC001092E9008E
:100FD0008091F000877F8093F00078940E940D0943
:100FE0001092E9008091F00088608093F000C09337
:100FF000E900FF91EF91CF91BF91AF919F918F91B8
:101000007F916F915F914F913F912F910F900FBE04
:101010000F901F901895CF92DF92EF92FF920F934F
:101020001F93CF93DF937C018B01EA010E94590645
:10103000811131C0209731F088819981081B190BEB
:10104000E80EF91EC12CD12C0115110519F1809162
:10105000E80085FD14C08091E8008E778093E80059
:10106000209741F0888199818C0D9D1D99838883FB
:1010700085E011C00E945906882331F30CC0F701A6
:1010800081917F018093F10001501109FFEFCF1A88
:10109000DF0ADACF80E0DF91CF911F910F91FF90AF
:1010A000EF90DF90CF9008952091DB013091DC012B
:1010B0002617370748F06115710539F42091E800CB
:1010C0002E772093E80001C0B901FC0120E06115F2
:1010D0007105A9F18091D4018823E9F18530E9F106
:1010E0008091E80083FD35C08091E80082FF06C052
:1010F0008091E80082FF26C080E008958091E8009A
:1011000080FFE5CF2091F3008091F20090E0922BD8
:101110006115710551F08830910538F421912093C3
:10112000F100615071090196F3CF21E0089709F0B1
:1011300020E08091E8008E778093E800C8CF2111ED
:10114000C9CFD6CF8091D401882329F0853081F68C
:1011500004C081E0089582E0089583E0089520911D
:10116000DB013091DC012617370748F06115710566
:1011700039F42091E8002E772093E80001C0B901EE
:10118000FC0120E061157105C1F18091D401882333
:1011900009F43FC0853009F43EC08091E80083FD2A
:1011A00036C08091E80082FF06C08091E80082FF8F
:1011B00027C080E008958091E80080FFE3CF209170
:1011C000F3008091F20090E0922B6115710559F0C7
:1011D0008830910540F424912093F10031966150BC
:1011E00071090196F2CF21E0089709F020E0809183
:1011F000E8008E778093E800C5CF2111C6CFD5CF08
:101200008091D401882329F0853079F604C081E0EB
:10121000089582E0089583E008950F931F93CF937C
:10122000DF93CDB7DEB7AA970FB6F894DEBF0FBE37
:10123000CDBFE5EDF1E08091F100819321E0ED3D3E
:10124000F207C9F70E949F048091E80083FF1DC147
:101250002091D5013091D601832F90E08A309105FD
:1012600008F013C1FC01EA5AFF4F0C944A1F2038C2
:1012700081F0223809F009C18091D9018F708093E3
:10128000E9008091EB0085FB882780F91092E90046
:1012900006C08091D1019091D2019111826090910C
:1012A000E800977F9093E8008093F1001092F1009E
:1012B000C6C0822F8D7F09F0E8C0222319F02230AA
:1012C00061F0E3C08091D701813009F0DEC0333096
:1012D00009F080E08093D20128C08091D70181116C
:1012E00024C02091D9012F7009F4CFC02093E900C8
:1012F0008091EB0080FF19C08091EB00333011F436
:10130000806211C080618093EB0081E090E0022E4A
:1013100001C0880F0A94EAF78093EA001092EA006D
:101320008091EB0088608093EB001092E90080913F
:10133000E800877F87C02111A8C01091D7011F77CF
:101340000FB7F8948091E800877F8093E8000E94AF
:1013500038068091E80080FFFCCF8091E300807820
:10136000812B8093E30080688093E300112311F0C8
:1013700083E001C082E08093D4010FBF86C0205873
:10138000223008F082C08091D7019091D8018C3D25
:1013900023E0920779F583E08A838AE289834FB755
:1013A000F894DE01139620E03EE051E2E32FF0E0F6
:1013B00050935700E49120FF03C0E295EF703F5F28
:1013C000EF708E2F90E0EA3010F0C79601C0C09603
:1013D0008D939D932F5F243149F74FBF8091E80093
:1013E000877F8093E8006AE270E0CE0101960E9458
:1013F000540814C0AE014F5F5F4F6091D9010E9445
:101400009405009709F441C02091E800277F2093BC
:10141000E800BC0189819A810E94AF088091E800B0
:101420008B778093E80031C0203879F58091E8000F
:10143000877F8093E8008091D0018093F1008091B4
:10144000E8008E778093E8000E9438061EC02111C4
:101450001CC09091D7019230C0F48091E800877F42
:101460008093E8009093D0010E9438068091D001CB
:10147000811104C08091E30087FF02C084E001C0B5
:1014800081E08093D4010E9486048091E80083FF6C
:101490000AC08091EB0080628093EB008091E800AD
:1014A000877F8093E800AA960FB6F894DEBF0FBE40
:1014B000CDBFDF91CF911F910F91089590935F0160
:1014C00080935E01089580915E0190915F0108957F
:1014D000E0915E01F0915F01309721F00190F08181
:1014E000E02D099480E00895E0915E01F0915F01A4
:1014F000309721F00280F381E02D09940895E09166
:101500005E01F0915F01309721F00480F581E02DBC
:101510000994089520915C0130915D018217930731
:1015200071F090935D0180935C01E0915E01F09118
:101530005F01309721F00680F781E02D099408952E
:1015400020915A0130915B018217930771F09093BB
:101550005B0180935A01E0915E01F0915F01309749
:1015600021F00084F185E02D099408950E94AC17C4
:101570000E943D020C9478185F926F927F928F9236
:101580009F92AF92BF92CF92DF92EF92FF920F9312
:101590001F93CF93DF93CDB7DEB72A970FB6F8949A
:1015A000DEBF0FBECDBF0E947A0291E6C92E91E048
:1015B000D92E00E010E0AA24A394B12C502E802F45
:1015C0000E945C033C01F601E190F1906F01E82676
:1015D000F926E114F104B1F40F5F1F4F0430110537
:1015E00069F78FEF89838A831B820E94B517816018
:1015F000782F9D838C8349815A816B818D810E94D4
:10160000750B3AC08091BC0181FD0E94650320E00A
:1016100030E04501022E02C0880C991C0A94E2F7C2
:10162000C4018E219F21892B09F12E835F826820BE
:10163000792081E0672809F480E088870E94B51747
:101640008160782F9A8789874E815F8168858A8536
:101650000E94750BF801EE0FFF1FEF59FE4F8081BE
:101660009181882599259183808306C02F5F3F4F04
:101670002C30310571F6B0CF0E945C1B10916001D7
:101680000E94680A1817D9F00E94680A80936001C6
:101690002A960FB6F894DEBF0FBECDBFDF91CF9173
:1016A0001F910F91FF90EF90DF90CF90BF90AF9080
:1016B0009F908F907F906F905F900C9466032A9616
:1016C0000FB6F894DEBF0FBECDBFDF91CF911F9153
:1016D0000F91FF90EF90DF90CF90BF90AF909F90D1
:1016E0008F907F906F905F900895CF93DF93CDB7E9
:1016F000DEB72B970FB6F894DEBF0FBECDBF4F837A
:10170000588769877A878B87DE01119686E0FD010D
:1017100011928A95E9F785E0FE01379601900D92C6
:101720008A95E1F749815A816B817C818D819E8107
:101730000E94AC122B960FB6F894DEBF0FBECDBF41
:10174000DF91CF910895CF93C82F882309F4C1C0AA
:10175000823859F40E94680A81FDBBC089E30E9467
:1017600049150E94FB1589E30CC0833879F40E9467
:10177000680A80FDAEC083E50E9449150E94FB15F2
:1017800083E50E948515CF910C94FB15843859F49C
:101790000E94680A82FD9DC087E40E9449150E944C
:1017A000FB1587E4EECF8CEF8C0F813A48F48C2F39
:1017B0000E94841D81118DC08C2F0E944915E3CF9A
:1017C00080E28C0F883048F4C77081E001C0880F38
:1017D000CA95EAF70E94C215D6CF8BE58C0F8330ED
:1017E00078F4C53A29F0C63A31F482E890E005C0B1
:1017F00081E890E002C083E890E0CF910C948A0ADF
:1018000088E58C0F833108F064C0C83A39F1C93AD1
:1018100041F1CA3A49F1CB3A51F1CC3A59F1CD3ABA
:1018200061F1C03B69F1CE3A71F1CF3A79F1C13B38
:1018300081F1C23B89F1C33B91F1C43B99F1C53BB6
:10184000A1F1C63BA9F1C73BB1F1C83BB9F1C93B16
:10185000C1F1CA3BC9F58AE292E038C082EE90E05D
:1018600035C089EE90E032C08AEE90E02FC085EB63
:1018700090E02CC086EB90E029C087EB90E026C07A
:101880008CEC90E023C08DEC90E020C083E891E0E8
:101890001DC08AE891E01AC082E991E017C084E98E
:1018A00091E014C081E292E011C083E292E00EC0A8
:1018B00084E292E00BC085E292E008C086E292E00A
:1018C00005C087E292E002C080E090E0CF910C94E6
:1018D000A00ACF910895882309F44BC0823859F4A7
:1018E0000E94680A81FF45C089E30E9449150E9451
:1018F000FB1589E30CC0833871F40E94680A80FFED
:1019000038C083E50E9449150E94FB1583E50E94BB
:1019100085150C94FB15843859F40E94680A82FFDF
:1019200028C087E40E9449150E94FB1587E4EFCF89
:101930009CEF980F913A58F390E2980F983050F43A
:10194000877091E001C0990F8A95EAF7892F0E946C
:10195000C815DFCF9BE5980F933020F480E090E02E
:101960000C948A0A885A833120F480E090E00C9429
:10197000A00A0895882321F00E94C2150C94FB153B
:101980000895882321F00E94C8150C94FB15089532
:10199000CF92DF92EF92FF920F931F93CF93DF933B
:1019A000CDB7DEB728970FB6F894DEBF0FBECDBF18
:1019B0008C0185E0F801DE01119601900D928A9567
:1019C000E1F7F80140813181F280258122952F7065
:1019D00083819481892B31F03F3F31F481E04F3F87
:1019E00019F403C081E001C080E080FDC8C24983D2
:1019F0003A8389819A812F830E9407159E83888765
:101A00000E9406150E94D9134E81E42FE295EF70D3
:101A1000F0E0E05AFF4F2F8168850C944A1F842F15
:101A2000807F142F1F70882311F01295107FFF20E4
:101A300059F0112309F458C2812F68870E94D215EA
:101A40000E94FB15688550C2862F0E946B0C1123E3
:101A500009F495C2812F0E94D81528960FB6F894E4
:101A6000DEBF0FBECDBFDF91CF911F910F91FF90D1
:101A7000EF90DF90CF900C94FB15342F307F842FA4
:101A80008F70303211F08295807F662319F06130BB
:101A900009F12AC0FF20A1F0222381F1213071F544
:101AA00028960FB6F894DEBF0FBECDBFDF91CF9161
:101AB0001F910F91FF90EF90DF90CF900C94E21563
:101AC000222319F0213009F45AC28E830E94E515B1
:101AD0008E818EC1FF2021F0263008F050C20EC04A
:101AE000253008F04CC284C1FF20C1F0222331F020
:101AF000F801958190FFF8C19F70958328960FB6E5
:101B0000F894DEBF0FBECDBFDF91CF911F910F9133
:101B1000FF90EF90DF90CF900C94BA0C222309F441
:101B200067C1F6C1242F26952695237030E0211534
:101B3000310521F021303105C9F021C2FF2021F00B
:101B4000862F942F937002C080E090E028960FB605
:101B5000F894DEBF0FBECDBFDF91CF911F910F91E3
:101B6000FF90EF90DF90CF900C948A0AFF2021F035
:101B7000862F942F937002C080E090E028960FB6D5
:101B8000F894DEBF0FBECDBFDF91CF911F910F91B3
:101B9000FF90EF90DF90CF900C94A00A862FFF204B
:101BA00019F00E94641A02C00E94CC1A28960FB63F
:101BB000F894DEBF0FBECDBFDF91CF911F910F9183
:101BC000FF90EF90DF90CF900C94511B842F837087
:101BD00009F076C0F110D3C1262F229526952770E3
:101BE000220F220F862F8F70C82ED12CE12CF12CC2
:101BF000022E04C0CC0CDD1CEE1CFF1C0A94D2F794
:101C000064FF10C06FE070E080E090E004C0660FF9
:101C1000771F881F991F2A95D2F760957095809538
:101C2000909503C060E070E0CB01242F26952695A7
:101C30002370422F50E042305105D1F0433051051E
:101C400059F16C297D298E299F294130510541F197
:101C500028960FB6F894DEBF0FBECDBFDF91CF91AF
:101C60001F910F91FF90EF90DF90CF900C94FE1397
:101C70006C297D298E299F2928960FB6F894DEBFFE
:101C80000FBECDBFDF91CF911F910F91FF90EF90CD
:101C9000DF90CF900C9418140E94FE13C701B60178
:101CA00028960FB6F894DEBF0FBECDBFDF91CF915F
:101CB0001F910F91FF90EF90DF90CF900C94E41361
:101CC000FF2019F0842F817001C08695882309F4C4
:101CD00056C1262F229526952770220F220F862F78
:101CE0008F70C82ED12CE12CF12C022E04C0CC0C0C
:101CF000DD1CEE1CFF1C0A94D2F764FF10C06FE0DD
:101D000070E080E090E004C0660F771F881F991F85
:101D10002A95D2F7609570958095909503C060E004
:101D200070E0CB01242F269526952370422F50E09A
:101D300042305105D1F04330510559F16C297D29CC
:101D40008E299F294130510541F128960FB6F8940C
:101D5000DEBF0FBECDBFDF91CF911F910F91FF90DE
:101D6000EF90DF90CF900C94D2146C297D298E29AE
:101D70009F2928960FB6F894DEBF0FBECDBFDF9126
:101D8000CF911F910F91FF90EF90DF90CF900C9427
:101D9000EC140E94D214C701B60128960FB6F8942D
:101DA000DEBF0FBECDBFDF91CF911F910F91FF908E
:101DB000EF90DF90CF900C94B814603F49F118F485
:101DC000603E48F48CC0623F09F451C0E0F1633FCB
:101DD00009F461C084C0162F1F70842F8F71FF20FB
:101DE00021F00E945114812F89CE0E947214812FFC
:101DF00028960FB6F894DEBF0FBECDBFDF91CF910E
:101E00001F910F91FF90EF90DF90CF900C94C10C39
:101E1000FF20A9F0253008F0B2C0842F8F712896DA
:101E20000FB6F894DEBF0FBECDBFDF91CF911F91EB
:101E30000F91FF90EF90DF90CF900C949714263085
:101E400008F09DC0EACFFF20A1F0842F8F71289663
:101E50000FB6F894DEBF0FBECDBFDF91CF911F91BB
:101E60000F91FF90EF90DF90CF900C945114FF20D2
:101E700061F3842F8F7128960FB6F894DEBF0FBEE2
:101E8000CDBFDF91CF911F910F91FF90EF90DF9029
:101E9000CF900C947214FF2091F0842F8F712896AC
:101EA0000FB6F894DEBF0FBECDBFDF91CF911F916B
:101EB0000F91FF90EF90DF90CF900C943C142896F8
:101EC0000FB6F894DEBF0FBECDBFDF91CF911F914B
:101ED0000F91FF90EF90DF90CF900C943214FF2081
:101EE000A1F0222309F4B1CF862F28960FB6F894DB
:101EF000DEBF0FBECDBFDF91CF911F910F91FF903D
:101F0000EF90DF90CF900C94A30B222309F4B1CF74
:101F1000862F28960FB6F894DEBF0FBECDBFDF9197
:101F2000CF911F910F91FF90EF90DF90CF900C9485
:101F30006B0C4F70C8010E94421728960FB6F89498
:101F4000DEBF0FBECDBFDF91CF911F910F91FF90EC
:101F5000EF90DF90CF900C945B134F70C8012896E0
:101F60000FB6F894DEBF0FBECDBFDF91CF911F91AA
:101F70000F91FF90EF90DF90CF900C94451728962B
:101F80000FB6F894DEBF0FBECDBFDF91CF911F918A
:101F90000F91FF90EF90DF90CF9008950E94DF1592
:101FA0000E94B4150E94FB150E94FD1B0E94511B4C
:101FB00080E090E00E948A0A80E090E00C94A00A01
:101FC0000E94CF150C94CE0F0E940715292F229541
:101FD0002F7030E02C3031054CF42A3031056CF490
:101FE000225031092230310590F407C02C303105E0
:101FF00051F02F30310539F00AC0803E10F0803F9B
:1020000031F481E0089593FB882780F9089580E0FA
:102010000895CF93DF9300D000D01F92CDB7DEB7E5
:102020000F900F900F900F900F90DF91CF91089528
:10203000CF93DF9300D000D000D0CDB7DEB7269687
:102040000FB6F894DEBF0FBECDBFDF91CF910895DC
:102050001F93CF93DF93C091690116E080916A01CD
:10206000C81799F0D0E01C9FF0011D9FF00D1124BE
:10207000E559FE4F40815181628173818481958150
:102080000E9418102196C770E9CFDF91CF911F9160
:10209000089540919B0150919C0160919D01709128
:1020A0009E0180919F019091A0010C941810CF93F4
:1020B0008091A00182958F7009F05FC080919D0191
:1020C000882309F45AC020916901A0916A016091A6
:1020D0009B0170919C0180919E0190919F0131E044
:1020E0006F3F09F030E0B32FC6E02A1709F445C06E
:1020F000009721F07F3F21F44B2F03C041E001C046
:1021000040E030E040FD35C0C29FF001C39FF00DBC
:102110001124E559FE4F418174132BC04081641393
:1021200028C04281411125C0438154814817590775
:1021300010F441505109481B590B483C5105C8F453
:102140008091A0018F7080618093A00186E0829FC2
:10215000F001839FF00D1124E059FE4F80818F70B4
:10216000806180838BE991E00E94C80CCF910C9430
:1021700028102F5F3F4F2770B8CFCF910895CF928F
:10218000DF92EF92FF920F931F93CF93DF93CDB720
:10219000DEB762970FB6F894DEBF0FBECDBF8C01DD
:1021A00085E0F801DE011D9601900D928A95E1F718
:1021B000D8014C9111965C91119712966C911297DF
:1021C0001396ED90FC90149770919B01E0919C0107
:1021D00020919E0130919F012115310531F0EF3F93
:1021E00031F481E07F3F19F403C081E001C080E059
:1021F000B82FB170CB2E80FD6CC1D0909D01DD2039
:1022000009F4F5C0F091A001E216F30638F0C70119
:10221000821B930B883C910548F09BC0209530951C
:102220002E0D3F1D283C310508F093C08F2F807F75
:1022300009F052C0E51314C0741312C0D62E6111F8
:102240000FC0FF70F061F093A0010E9449108BE96C
:1022500091E00E94C80C8091A001F80185836CC1B7
:10226000EF2831F05F3F31F481E04F3F19F403C0B4
:1022700081E001C080E080FD03C081E0862701C0CD
:1022800080E0F82FF170FF2E80FF1CC08091690163
:1022900020916A0136E0821709F428C190E0389F46
:1022A000F001399FF00D1124E559FE4F718157134C
:1022B00006C07081471303C07281671303C0019683
:1022C0008770E9CFD62E662309F436C18091A0012C
:1022D00081608093A00153C0E51308C0741306C049
:1022E000611104C0D8011596FC93AEC04D875E877E
:1022F0008D859E856A8B0E94E40F6A89882329F167
:10230000D62E662311F12091A001822F82958F7025
:1023100090E002970CF460C080919B0190919C0129
:1023200098878F831986FB86EA862C87CE010796CD
:1023300051C0E51731F14D875E878D859E856A8B8B
:102340000E94E40F6A8981112EC0C8010E94C80C46
:10235000A4C08F2F807F69F77E2DF98AE88A89894A
:102360000E9409108BE991E00E94C80CEBE9F1E0B2
:1023700086E0DF011D928A95E9F70E944910D12C71
:10238000DBC07413D8CF6111D6CFD8011596FC935A
:10239000C8010E94C80CEBE9F1E086E0DF011D9264
:1023A0008A95E9F7C9C0D62E662379F22091A0015B
:1023B000822F82958F7090E0029774F080919B013C
:1023C00090919C019A8389831B82FD82EC822E83EB
:1023D000CE0101960E94C80C86E0F801ABE9B1E09D
:1023E00001900D928A95E1F70E9457106FC0E21696
:1023F000F30628F0C701821B930B9C0104C02095B3
:1024000030952E0D3F1D283C310508F052C0D62EC8
:10241000662309F49ACFE5132CC074132AC0809167
:10242000A00180FD1DC0982F92959F70C9F0D80122
:1024300015968C9315979F3039F09F5F9295907FFA
:102440008F70892B15968C93C8010E94C80C86E06A
:10245000F801ABE9B1E001900D928A95E1F736C041
:1024600086E0F801ABE9B1E001900D928A95E1F7C1
:1024700063C04D875E878D859E850E94E40F88230B
:1024800079F086E0F801ABE9B1E001900D928A9510
:10249000E1F70E9457100E944910DD24D3944CC0EC
:1024A0008091A00181608093A001C8010E94C80CA6
:1024B00043C07E2DF98AE88A89890E940910EBE9D8
:1024C000F1E086E0DF011D928A95E9F70E9449104C
:1024D00033C0662309F439CF4D875E878D859E858D
:1024E0000E94E40F882309F430CFCBCF4D875E875D
:1024F0008D859E850E940715292F22952F7030E02B
:10250000223031052CF49F7041F0811106C00CC0BF
:10251000243031052CF49F7049F4805E883020F01F
:10252000C8010E94C80CCF2CDC2C06C0D80115961F
:102530009C91907F91F7F8CF8D2D62960FB6F8940D
:10254000DEBF0FBECDBFDF91CF911F910F91FF90E6
:10255000EF90DF90CF9008951F93CF93DF93CDB787
:10256000DEB72C970FB6F894DEBF0FBECDBF4F83FA
:10257000588769877A878B879C87CE0107960E9448
:10258000BF108823D1F02F8138858A859B85892BC0
:1025900031F03F3F31F481E02F3F19F403C081E077
:1025A00001C080E080FD47C04F81588569857A85EC
:1025B0008B859C850E9418103EC086E0FE013796F0
:1025C000DE01119601900D928A95E1F7FF81E88571
:1025D0004A855B854115510531F0EF3F31F481E0CB
:1025E000FF3F19F403C081E001C080E080FD23C0FB
:1025F00020916A0130E0C9010196877099276091A6
:10260000690170E086179707F1F1F983EA835D832A
:102610004C8396E0929FD001939FB00D1124A55951
:10262000BE4FFE01319601900D929A95E1F780938D
:102630006A010E94281016E08091690190916A0158
:10264000891779F1189FC001112485599E4F0E9466
:10265000BF10882331F1E09169011E9FF001112420
:10266000E559FE4F4081518162817381848195815A
:102670000E9418108091690190E001968770992757
:1026800080936901D9CF0E94E00F10926A011092E5
:102690006901EBE9F1E086E0DF011D928A95E9F737
:1026A000CACF2C960FB6F894DEBF0FBECDBFDF9118
:1026B000CF911F910895EF92FF920F931F93CF93A5
:1026C000DF93FC01009709F46DC0F12CEE24E39434
:1026D000EF0121968491843740F4843008F053C090
:1026E000813081F0823021F15DC0853709F445C029
:1026F000B0F19CE7980F903708F054C08F770E9494
:102700006B0C43C08F010E5F1F4FFE01849190E25E
:10271000980F983050F48770FE2D01C0FF0F8A95F6
:10272000EAF78F2F0E94D21515C00E94A30B12C08A
:102730008F010E5F1F4FFE01849190E2980F983039
:1027400058F48770FE2D01C0FF0F8A95EAF78F2F8E
:102750000E94D815E80119C00E946B0CFBCFCF0175
:102760000296FE01C491CC2361F0EFE9FFE03197BE
:10277000F1F700C00000C150F6CFCF010296FE0174
:10278000F490EC0102C00E94A30B8F2D882341F02E
:10279000EFE9FFE03197F1F700C000008150F6CF7C
:1027A000FE0196CFDF91CF911F910F91FF90EF9097
:1027B000089508956093A5017093A6018093A701E1
:1027C0009093A8010C94CE0F0F931F930091A50135
:1027D0001091A6012091A7013091A801062B172B7B
:1027E000282B392B0093A5011093A6012093A70154
:1027F0003093A8011F910F910C94CE0F0F931F934C
:102800000091A5011091A6012091A7013091A80186
:1028100006231723282339230093A5011093A6012B
:102820002093A7013093A8011F910F910C94CE0F14
:102830000F931F930091A5011091A6012091A7016C
:102840003091A80106271727282739270093A501CB
:102850001093A6012093A7013093A8011F910F9117
:102860000C94CE0F1092A1011092A2011092A3011C
:102870001092A4010C94CE0F41E050E060E070E0B3
:1028800004C0440F551F661F771F8A95D2F74093E7
:10289000A1015093A2016093A3017093A4010C9431
:1028A000CE0F41E050E060E070E004C0440F551FDF
:1028B000661F771F8A95D2F78091A1019091A2019E
:1028C000A091A301B091A401842B952BA62BB72B2B
:1028D0008093A1019093A201A093A301B093A401BE
:1028E0000C94CE0F41E050E060E070E004C0440F73
:1028F000551F661F771F8A95D2F7409550956095B2
:1029000070958091A1019091A201A091A301B09135
:10291000A40184239523A623B7238093A101909338
:10292000A201A093A301B093A4010C94CE0F41E0A7
:1029300050E060E070E004C0440F551F661F771F31
:102940008A95D2F78091A1019091A201A091A30153
:10295000B091A40184279527A627B7278093A101CA
:102960009093A201A093A301B093A4010C94CE0F65
:102970000F931F930091A1011091A2012091A30137
:102980003091A401062B172B282B392B0093A10182
:102990001093A2012093A3013093A4011F910F91E2
:1029A0000C94CE0F0F931F930091A1011091A201DF
:1029B0002091A3013091A401062317232823392352
:1029C0000093A1011093A2012093A3013093A401CD
:1029D0001F910F910C94CE0F0F931F930091A101A3
:1029E0001091A2012091A3013091A401062717277D
:1029F000282739270093A1011093A2012093A30156
:102A00003093A4011F910F910C94CE0F0895CF9293
:102A1000DF92EF92FF920F931F93CF93DF93EC011E
:102A2000C090A501D090A601E090A701F090A80168
:102A30008091A1019091A201A091A301B091A40164
:102A4000C82AD92AEA2AFB2A0FE110E0B701A60119
:102A5000002E04C076956795579547950A94D2F74E
:102A600040FF07C0BE01802F0E94CF168130910524
:102A700039F40150110950F7BE0180E00E94CF16D1
:102A8000DF91CF911F910F91FF90EF90DF90CF904A
:102A9000089590910C019923B9F0982F96959695E9
:102AA00096959F3088F5E0910D01F0910E01E90FA8
:102AB000F11D877021E030E001C0220F8A95EAF70E
:102AC0008181822B8183089540910D0150910E01E7
:102AD00020E030E09FEFFA01E20FF31F62816817F8
:102AE00099F09F3F19F4611101C0922F2F5F3F4F62
:102AF0002E30310581F79F3F39F0FA01E90FF11DC2
:102B000097FDFA9582830895089590910C01992379
:102B1000C1F0982F9695969596959F3020F5E09167
:102B20000D01F0910E01E90FF11D877021E030E0F9
:102B300001C0220F8A95EAF72095818128232183FD
:102B4000089540910D0150910E0120E030E0FA010E
:102B5000E20FF31F9281981301C012822F5F3F4F43
:102B60002E303105A1F7089581E090E0E0910D014C
:102B7000F0910E01E80FF91F108201968031910546
:102B8000A9F708959091BB01982B9093BB010895EC
:102B900080959091BB0198239093BB01089510926A
:102BA000BB0108959091BA01982B9093BA010895B2
:102BB00080959091BA0198239093BA01089510924C
:102BC000BA0108958093A90108951092A90108956A
:102BD00040910D0150910E0120E030E080E0FA01BB
:102BE000E20FF31F918191118F5F2F5F3F4F2F30C5
:102BF0003105A9F70895E0910D01F0910E01809142
:102C0000BB018083E0910D01F0910E0180819091D4
:102C1000BA01892B80839091A901992361F0E091F9
:102C20000D01F0910E018081892B80830E94E815AF
:102C300081111092A90180910D0190910E010C94C7
:102C4000740A8D3B60F4883A00F5853AA8F4843024
:102C500088F4813009F05BC081E090E00895803E07
:102C600008F455C0883E30F0803F08F450C090E032
:102C70009065089590E00895853A09F44BC0863A2E
:102C800009F04BC082E890E40895883A09F448C0FE
:102C9000893A09F448C08A3A09F448C08B3A09F4E1
:102CA00048C08C3A09F448C08B3B09F448C08C3BBF
:102CB00009F448C08D3A09F448C0803B09F448C083
:102CC0008E3A09F448C08F3A09F448C0813B09F4B0
:102CD00048C0823B09F448C0833B09F448C0843BA8
:102CE00009F448C0853B09F448C0863B09F448C054
:102CF000873B09F448C0883B09F448C0893B09F484
:102D000048C08A3B09F048C08AE296E4089580E012
:102D100090E0089581E890E4089583E890E40895B0
:102D200082EE94E4089589EE94E408958AEE94E4A2
:102D3000089585EB94E4089586EB94E4089583EB7D
:102D400094E4089584EB94E4089587EB94E4089563
:102D50008CEC94E408958DEC94E4089583E895E474
:102D600008958AE895E4089582E995E4089584E950
:102D700095E4089581E296E4089583E296E4089547
:102D800084E296E4089585E296E4089586E296E466
:102D9000089587E296E4089580E094E408950E94FF
:102DA0001E02803EA8F4803C00F5813309F45CC02B
:102DB00038F4893209F452C08A3209F45BC05FC02A
:102DC0008933B1F08238A1F0853309F441C057C08E
:102DD000833E41F128F4803E99F0823EB9F04FC025
:102DE000863E31F1873E71F14AC00E942D0208955E
:102DF0009091CF0190FD02C091FF41C080EE3FC095
:102E00008091CF0180FFFACF89E339C08091CF0153
:102E100082FF0CC08091CF0184FF02C080E02FC0F0
:102E200083EE2DC08091CF0182FFF4CF82EE27C0C8
:102E30008091CF0183FF0AC08091CF0184FDEECF46
:102E400087EE1DC08091CF0183FFF6CF86EE17C0BD
:102E50008091CF0185FF06C089E211C08091CF012A
:102E600085FFFACF85E30BC08091CF0186FF06C0B6
:102E70008AE205C08091CF0186FFFACF81E30E94EC
:102E80002116089580E090E0089508958091D4017E
:102E9000843009F11092BD0120E488E190E00FB682
:102EA000F894A895809360000FBE2093600083B7CC
:102EB000817F846083BF83B7816083BF7894889566
:102EC00083B78E7F83BF88E10FB6F894809360004C
:102ED000109260000FBE0895CF930E941C020E94C2
:102EE0007A020E941D02C0E08C2F0E945C03892B95
:102EF00029F4CF5FC430C1F780E001C081E0CF91F9
:102F000008950C94E00F1F920F920FB60F921124A8
:102F10008F939F93AF93BF938091BD01811113C095
:102F20008091BE019091BF01A091C001B091C101FB
:102F30004196A11DB11D8093BE019093BF01A09346
:102F4000C001B093C101BF91AF919F918F910F903C
:102F50000FBE0F901F90189582E084BD93E095BD41
:102F60009AEF97BD80936E0008952FB7F8948091E3
:102F7000BE019091BF01A091C001B091C1012FBFCE
:102F80000895CF92DF92EF92FF920F931F932FB786
:102F9000F8944091BE015091BF016091C0017091C1
:102FA000C1012FBF6A017B01EE24FF248C0120E0C8
:102FB00030E0C016D106E206F30610F44150510984
:102FC000481B590BCA011F910F91FF90EF90DF90A2
:102FD000CF9008951F920F920FB60F9211248F93E6
:102FE0009F93AF93BF938091BE019091BF01A09139
:102FF000C001B091C1010196A11DB11D8093BE0118
:103000009093BF01A093C001B093C101BF91AF9154
:103010009F918F910F900FBE0F901F9018950E9457
:103020008906F8942FEF87EA91E62150804090407E
:10303000E1F700C0000087E090EBDC018093DD0148
:103040009093DE01A093DF01B093E0019CE088E162
:103050000FB6F894A895809360000FBE909360001F
:10306000FFCFCF92DF92EF92FF920F931F93CF93F8
:10307000DF93C82ED12C01E010E08D2D0E945C035F
:103080007C01C0E0D0E098010C2E02C0220F331F5B
:103090000A94E2F72E213F21232B29F42196CC30EC
:1030A000D10589F709C06C2F7D2D80E00E941E029A
:1030B000C812F4CF81E005C0D39484E0D812DDCFEC
:1030C00080E0DF91CF911F910F91FF90EF90DF9003
:1030D000CF900895CF93C82F8CE20E943118882397
:1030E00021F08C2FCF910C94311880E0CF9108956E
:1030F000CF930E94BD19811102C00E94A319C5E699
:10310000C15049F00E947A028FE39CE90197F1F7E0
:1031100000C00000F5CF89E20E946A18811111C138
:103120008AE20E946A1881110E94A31985E00E9418
:103130006A1881110E940F180E94C8198093BC015F
:1031400087E00E946A18882399F18BE10E946A182F
:10315000882351F09091BC0191FB882780F921E0F0
:10316000822780FB91F922C08EE00E946A18882392
:1031700051F09091BC0192FB882780F921E08227D1
:1031800080FB92F913C080E10E946A189091BC0103
:10319000882341F093FB882780F921E0822780FB78
:1031A00093F904C0892F809580FB90F99093BC011E
:1031B0008091BC010E94CC190E94DA198093CF0142
:1031C00080EE0E946A18882341F08091CF01982FE9
:1031D000909590FB80F98093CF0189E30E946A1853
:1031E000882359F09091CF0191FB882780F921E045
:1031F000822780FB91F99093CF0182EE0E946A189A
:10320000882359F09091CF0192FB882780F921E023
:10321000822780FB92F99093CF0186EE0E946A1874
:10322000882359F09091CF0193FB882780F921E002
:10323000822780FB93F99093CF0183EE0E946A1856
:10324000882359F09091CF0194FB882780F921E0E1
:10325000822780FB94F99093CF0185E30E946A183E
:10326000882359F09091CF0195FB882780F921E0C0
:10327000822780FB95F99093CF0181E30E946A1821
:10328000882359F09091CF0196FB882780F921E09F
:10329000822780FB96F99093CF0181E10E946A1802
:1032A000882359F09091CF0197FB882780F921E07E
:1032B000822780FB97F99093CF018091CF010E94E4
:1032C000DE198091CF0187FB882780F980930C015C
:1032D00087E20E946A18C82F8EE10E946A18811145
:1032E000C2608FE10E946A188111C46080E20E946E
:1032F0006A188111C86081E20E946A188111C06158
:1033000082E20E946A188111C06283E20E946A18F8
:103310008111C06484E20E946A18882311F0C06899
:1033200002C0CC2329F08C2F0E94D5196C2F03C02A
:103330000E94D119682F70E080E090E0CF910C944A
:10334000DA13CF9108956DEE7EEF80E090E00E9459
:10335000801F60E082E090E00E94721F60E083E0E6
:1033600090E00E94721F60E084E090E00E94721F73
:1033700060E085E090E00C94721F80E090E00E9495
:103380006C1F21E08D3E9E4F09F020E0822F0895B2
:1033900082E090E00C94641F682F82E090E00C942F
:1033A000721F83E090E00C94641F682F83E090E02C
:1033B0000C94721F84E090E00C94641F682F84E0EA
:1033C00090E00C94721F8091C40180FF0BC060914B
:1033D000120185E0689FB001112475956795759578
:1033E00067952AC081FF09C06091120185E0689F3E
:1033F000B0011124759567951FC082FF07C06091C9
:10340000120185E0689FB001112416C04091C501EA
:103410004423C9F060911101461788F720911201E9
:1034200085E0289F90011124429FC001439F900D89
:10343000112470E00E94361F6038710540F4611558
:10344000710539F002C065E070E0862F08958FE7BE
:10345000089581E008958091C40180FF08C06091C3
:10346000100170E0759567957595679521C081FF8E
:1034700006C06091100170E07595679519C082FFD4
:1034800004C06091100170E010C08091C5018823D4
:10349000C1F060910F018617A0F790911001989FDD
:1034A000C001112470E00E94361F6038710528F4B5
:1034B0006115710521F0862F08958FE7089581E049
:1034C000089561E070E0F4CF803F21F40E94E31999
:1034D000819504C0813F29F40E94E3198093C801BB
:1034E0000895823F21F40E94E319819504C0833F2F
:1034F00029F40E94E3198093C7010895893F19F4C4
:103500000E942B1A05C08A3F31F40E942B1A819524
:103510008093C90108958B3F21F40E942B1A819555
:1035200004C08C3F29F40E942B1A8093CA0108958D
:10353000843F21F48091C601816017C0853F21F44A
:103540008091C601826011C0863F21F48091C6013E
:1035500084600BC0873F21F48091C601886005C05C
:10356000883F31F48091C60180618093C60108953F
:103570008D3F21F48091C40181600BC08E3F21F406
:103580008091C401826005C08F3F29F48091C401FD
:1035900084608093C4010895803F39F48091C8010C
:1035A00087FF6CC01092C80169C0813F29F48091E7
:1035B000C8011816BCF362C09091C701823F29F47C
:1035C00097FF5CC01092C70159C0833F19F41916C8
:1035D000CCF354C0893F41F48091C90118160CF016
:1035E0004DC01092C9014AC08A3F29F48091C90197
:1035F00087FF44C0F6CF8B3F39F48091CA0187FF23
:103600003DC01092CA013AC08C3F29F48091CA0192
:103610001816BCF333C0843F21F48091C6018E7F1D
:1036200017C0853F21F48091C6018D7F11C0863F70
:1036300021F48091C6018B7F0BC0873F21F48091DC
:10364000C601877F05C0883F31F48091C6018F7E17
:103650008093C60113C08D3F21F48091C4018E7FF9
:103660000BC08E3F21F48091C4018D7F05C08F3F38
:1036700029F48091C4018B7F8093C4018091C7019C
:1036800081110EC08091C80181110AC08091C901C9
:10369000811106C08091CA01811102C01092C5013A
:1036A000089586EC91E00E947F0A0E94B5179093DE
:1036B000C3018093C20108951F93CF93DF9380913C
:1036C000C2019091C3010E94C1174091C5014423DA
:1036D00021F02091130130E006C0209114015AE03E
:1036E000259F900111248217930708F482C08091CE
:1036F000C7011091C801D091C901C091CA018111BF
:1037000007C0111105C0D11103C0CC2309F471C049
:103710004F3F19F04F5F4093C501181624F40E94E3
:10372000E3198093C7018091C70187FF05C00E94FC
:10373000E31981958093C701111624F40E94E319BF
:103740008093C8018091C80187FF05C00E94E319DA
:1037500081958093C8016091C701662339F110916A
:10376000C801112319F1772767FD7095872F972FCF
:103770000E94471E23E333E343E35FE30E94AB1E53
:103780000E94141E6093C701612F772767FD709513
:10379000872F972F0E94471E23E333E343E35FE322
:1037A0000E94AB1E0E94141E6093C8011D1624F4D3
:1037B0000E942B1A8093C9018091C90187FF05C01F
:1037C0000E942B1A81958093C9011C1624F40E9433
:1037D0002B1A8093CA018091CA0187FF05C00E94FD
:1037E0002B1A81958093CA01DF91CF911F910C9480
:1037F000511BDF91CF911F910895E6ECF1E085E038
:10380000DF011D928A95E9F71092C5011092C4015B
:103810000895833081F128F4813059F08230D1F05D
:103820000895853009F449C0B8F1863009F456C0CE
:10383000089520911401862F90E0820F911D8F3FF3
:10384000910524F4620F6093140108958FEF809323
:103850001401089520911301862F90E0820F911D8D
:103860008F3F910524F4620F6093130108958FEF49
:1038700080931301089520911201862F90E0820F0A
:10388000911D8F3F910524F4620F609312010895FA
:103890008FEF80931201089520911101862F90E0FF
:1038A000820F911D8F3F910524F4620F60931101E7
:1038B00008958FEF80931101089520911001862FB4
:1038C00090E0820F911D8F3F910524F4620F609369
:1038D000100108958FEF80931001089520910F013A
:1038E000862F90E0820F911D8F3F910524F4620F87
:1038F00060930F0108958FEF80930F010895833037
:1039000011F128F4813049F0823091F0089585302A
:1039100081F120F18630C1F108958091140168177A
:1039200020F4861B809314010895109214010895C9
:1039300080911301681720F4861B8093130108956A
:1039400010921301089580911201681720F4861BCC
:10395000809312010895109212010895809111012F
:10396000681720F4861B80931101089510921101AD
:10397000089580911001681720F4861B8093100130
:10398000089510921001089580910F01681720F496
:10399000861B80930F01089510920F010895482F00
:1039A00050E0FA013697E334F10520F4E059FF4F77
:1039B0000C944A1F80E008950E94C8190E94DA19E9
:1039C0009DC00E94630A892B59F00E94630A90935C
:1039D000CC018093CB010E94E00F80E090E004C016
:1039E0008091CB019091CC010E945E0A87C08091AA
:1039F000BC01817F8E7F8093BC0181E08093CE01EA
:103A000008950E94E00F2FEF83ED90E32150804056
:103A10009040E1F700C000000E940F186FC0909125
:103A2000BC01892F817090FF03C0917F9E7F27C0CA
:103A300091609093BC0162C09091BC0191FB88277A
:103A400080F921E0822780FB91F913C09091BC019D
:103A500092FB882780F921E0822780FB92F909C038
:103A60009091BC0193FB882780F921E0822780FB9D
:103A700093F99093BC01882309F440C0916090931E
:103A8000BC0108950E94E00F80910C0191E089270C
:103A900080930C0133C081E890E00E948A0A2FEFE6
:103AA00081EE94E0215080409040E1F700C000009A
:103AB00080E090E00E948A0A2FEF89E698E1215089
:103AC00080409040E1F700C0000018C061E070E065
:103AD00080E090E00FC023EE01C027EC280F61E0EA
:103AE00070E080E090E004C0660F771F881F991F88
:103AF0002A95D2F70E94DA130E94E00F81E0089520
:103B000080E0089580E00895CF93C82F8091CE0182
:103B1000813069F018F08230B1F17CC0A0910D01C4
:103B2000B0910E018C91823209F076C007C0A0914D
:103B30000D01B0910E018C91823249F48C2F0E94BC
:103B4000801D81111DC08C2F0E94CF1C1AC08C2F8C
:103B50000E94821D811114C0C43179F048F4CB3029
:103B600079F0C03109F05CC082E08093CE0108C0DA
:103B7000C93219F0C83321F053C01092CE0150C0A1
:103B800081E081704FC0C93291F120F5C43179F1E3
:103B9000B0F4C73009F042C08EE18093140182E393
:103BA000809313018AE08093120184E180931101D4
:103BB00088E08093100188E280930F012FC0CE51DE
:103BC000CA3060F5EC2FF0E0E25DFE4F808180931B
:103BD000CD0124C0CE34C1F020F4CB34F9F46AE036
:103BE0000EC0C13551F0C235C9F461E008C0109271
:103BF000CD0181E08093CE0115C061E006C08091C7
:103C0000CD010E94091C0AC06AE08091CD010E948A
:103C10007F1C04C01092CE0180E004C081E002C08D
:103C200080E0AFCFCF91089504D06894B1118DC0DA
:103C3000089570D088F09F5790F0B92F9927B75109
:103C4000A0F0D1F0660F771F881F991F1AF0BA9560
:103C5000C9F712C0B13081F077D0B1E0089574C0D7
:103C6000672F782F8827B85F39F0B93FCCF3869556
:103C700077956795B395D9F73EF4909580957095B3
:103C800061957F4F8F4F9F4F0895E89409C097FB30
:103C90003EF490958095709561957F4F8F4F9F4F23
:103CA0009923A9F0F92F96E9BB279395F695879567
:103CB00077956795B795F111F8CFFAF4BB0F11F42A
:103CC00060FF1BC06F5F7F4F8F4F9F4F16C08823D1
:103CD00011F096E911C0772321F09EE8872F762F07
:103CE00005C0662371F096E8862F70E060E02AF048
:103CF0009A95660F771F881FDAF7880F9695879534
:103D000097F9089557FD9058440F551F59F05F3F9C
:103D100071F04795880F97FB991F61F09F3F79F0ED
:103D200087950895121613061406551FF2CF46956F
:103D3000F1DF08C0161617061806991FF1CF8695F1
:103D40007105610508940895E894BB2766277727D5
:103D5000CB0197F908950BD078C069D028F06ED0C8
:103D600018F0952309F05AC05FC01124EECFCADFC6
:103D7000A0F3959FD1F3950F50E0551F629FF0017E
:103D8000729FBB27F00DB11D639FAA27F00DB11DD7
:103D9000AA1F649F6627B00DA11D661F829F222760
:103DA000B00DA11D621F739FB00DA11D621F839FE7
:103DB000A00D611D221F749F3327A00D611D231FBD
:103DC000849F600D211D822F762F6A2F11249F570B
:103DD00050408AF0E1F088234AF0EE0FFF1FBB1F2E
:103DE000661F771F881F91505040A9F79E3F5105CD
:103DF00070F014C0AACF5F3FECF3983EDCF38695D9
:103E000077956795B795F795E7959F5FC1F7FE2B77
:103E1000880F911D9695879597F9089597F99F6753
:103E200080E870E060E008959FEF80EC0895002442
:103E30000A941616170618060906089500240A940F
:103E400012161306140605060895092E0394000C95
:103E500011F4882352F0BB0F40F4BF2B11F460FF24
:103E600004C06F5F7F4F8F4F9F4F089597FB072EC2
:103E700016F4009407D077FD09D00E94501F07FC6C
:103E800005D03EF4909581959F4F0895709561956A
:103E90007F4F0895EE0FFF1F0590F491E02D0994D8
:103EA000AA1BBB1B51E107C0AA1FBB1FA617B70760
:103EB00010F0A61BB70B881F991F5A95A9F780957C
:103EC0009095BC01CD010895F999FECF92BD81BDB9
:103ED000F89A992780B50895A8E1B0E042E050E053
:103EE0000C94871F262FF999FECF1FBA92BD81BD72
:103EF00020BD0FB6F894FA9AF99A0FBE019608956C
:103F00000E94721F272F0C94731FDC01CB01FC0150
:103F1000F999FECF06C0F2BDE1BDF89A319600B422
:0E3F20000D9241505040B8F70895F894FFCF2D
:103F2E00056703F403D1039D036A030101AA012867
:103F3E0008140A321E3F4D3620396D032003EA0263
:103F4E00CA02910204021D0236024F026F020102E2
:083F5E00030405060708090031
:00000001FF
